:020000040800F2
:1000000070040020C10100087D1700087915000860
:1000100079170008B5020008A919000800000000BF
:10002000000000000000000000000000851700082C
:10003000B9020008000000008117000889170008B5
:10004000DB010008DB010008DB010008DB01000820
:10005000DB010008DB010008DB010008DB01000810
:10006000BD020008DB010008DB010008DB0100081D
:10007000DB010008DB010008DB010008DB010008F0
:10008000DB010008DB010008DB010008DB010008E0
:10009000DB010008DB010008DB010008DB010008D0
:1000A000DB01000859180008DB010008DB0100082B
:1000B000DB010008DB010008DB010008DB010008B0
:1000C000DB010008DB010008DB010008DB010008A0
:1000D000DB010008DB010008DB010008DB01000890
:1000E000DB010008DB010008DB010008DB01000880
:1000F000DB010008DB010008DB010008DB01000870
:10010000DB010008DB010008DB010008DB0100085F
:10011000DB010008DB010008DB010008DB0100084F
:10012000DB010008DB010008DB010008DB0100083F
:10013000DB010008DB010008DB010008DB0100082F
:10014000DB010008DB010008DB010008DB0100081F
:10015000DB010008DB010008DB010008DB0100080F
:10016000DB010008DB010008DB010008DB010008FF
:10017000DB010008DB010008DB01000800000000D3
:10018000DB010008DB010008DB010008DB010008DF
:10019000DB010008DB010008DB010008DB010008CF
:1001A0000000000000000000DB010008DFF80CD0B8
:1001B00000F068F800480047AD19000870040020FE
:1001C0000648804706480047FEE7FEE7FEE7FEE7F1
:1001D000FEE7FEE7FEE7FEE7FEE7FEE7451800085C
:1001E000AD0100082DE9F05F0546002092469B46D0
:1001F00088460646814640241BE02846414647463D
:10020000224600F02FF853465A46C01A914110D3A7
:1002100011461846224600F016F82D1A67EB010821
:100220004F4622460120002100F00DF817EB00098F
:100230004E41201EA4F10104DFDC484631462A4627
:100240004346BDE8F09F202A04DB203A00FA02F181
:10025000002070479140C2F1200320FA03F31943B4
:1002600090407047202A04DB203A21FA02F0002156
:10027000704721FA02F3D040C2F1200291400843B6
:10028000194670471CB50948009009480190054679
:10029000009C06E0E06840F0010394E807009847FE
:1002A0001034AC42F6D3FFF785FF0000B81A0008FF
:1002B000D81A0008FEE7000070470000042000F094
:1002C00027B8000072B600BFFEE7000004281DD169
:1002D00080B500F0F9F840F21001C2F20001CA78CE
:1002E000012ABDE8804004D1CA68821A1E2A38BF9C
:1002F00070470122CA70C860087845F25652013032
:100300004243120C02EB4202801A08707047000050
:1003100043F61441C4F201010A68024214BF0860A6
:100320007047FFF7D3BF00002DE9F04F82B000F116
:100330003E4707F1FF77860546EA972742F20046D7
:10034000C4F202060A2243F6004EB04208BF092258
:10035000C4F2010E092F38BF3A46002600274FF09D
:100360000008009209E000BF08F101080237B8F167
:10037000100F06F1040600F0A3800D68012202FAB6
:1003800008F415EA0409EFD0D1F804B003220BF009
:10039000030CACF10105BA40012D6FEA020A0FD837
:1003A0008268CD6802EA0A02BD402A438260426840
:1003B000A243CBF3001404FA08F42243426005E0A0
:1003C000BCF1030F02D14FF0030C1EE0C2688C6831
:1003D00002EA0A02BC402243BCF1020FC26014D1FF
:1003E0006FF0030202EA58020244D2F820C006F07D
:1003F0001C040F230D69A3402CEA0303A5402B43E3
:100400001362D1F804B00BF0030C02680CFA07F386
:1004100002EA0A021A431BF4403F0260A4D0002201
:1004200043F644030192C4F202031A684FF6084CE3
:1004300042F480421A601A68CFF6FF7C02F48042D0
:100440000192019A28F00302724452F80C3006F02F
:100450000C050F24AC40A343009C04FA05F52B4384
:1004600042F80C30DEF808204B6842EA090543F6F2
:100470000C4CDC0258BF22EA0905CEF80850C4F241
:10048000010CDCF800209C0242EA090558BF22EA70
:100490000905CCF80050DEF804209C0342EA090567
:1004A00058BF22EA0905CEF80450DEF80020DB032D
:1004B00042EA090558BF22EA0905CEF8005053E781
:1004C00002B0BDE8F08F000040F26800C2F2000008
:1004D0000068704740F2000040F26801C2F200007C
:1004E000C2F2000100780A681044086070470000FA
:1004F00080B543F60040C4F20200016841F4007187
:100500000160016841F480610160016841F480711B
:100510000160032000F086F80F2000F005F800F0DD
:1005200027F8002080BD000070B540F20006C2F23E
:10053000000640F208013278C2F200014FF47A73EB
:100540000968B3FBF2F20446B1FBF2F1084600F091
:1005500077FB0F2C4FF0010508D838B94FF0FF306A
:1005600021460022002500F031F87460284670BD55
:1005700082B0002043F640010190C4F202014A68B3
:1005800042F480424A604A6802F480420192019A31
:100590000090086840F080500860086800F08050C3
:1005A0000090009802B07047002848BF704700F0E4
:1005B0001F01012202FA01F11C2202EAD0004EF2D0
:1005C0000012CEF2000281507047000010B54EF6C6
:1005D0000C5CCEF2000CDCF80030C3F3022E8EF07F
:1005E0000704042C28BF0424BEF103034FF0FF3E90
:1005F0000EFA04F438BF0023A14399400EFA03F326
:100600009A43114300F00F0200F160430901043ADC
:1006100003F564436244002848BF02F10C031970DB
:1006200010BD00004EF60C51CEF200010A684FF6E4
:10063000FF031A4060F30A2242F0806040F0FD7030
:100640000860704770B582B00020019043F640000A
:10065000C4F202000168402641F080510160006848
:10066000C4F20E2600F080500190019847F2040574
:100670000120C4F200053060FFF726FF044600BFEA
:100680002868C00306D4FFF71FFF001BB0F57A7F70
:10069000F6D90EE001207060FFF716FF044600BF98
:1006A0002868800308D4FFF70FFF001BB0F57A7F9E
:1006B000F6D9032002B070BD002002B070BD00006A
:1006C000002804BF012070472DE9F04143F60808D7
:1006D000C4F202080446D8F8F8030D4600F00F00F3
:1006E000884207D288F8F853D8F8F80300F00F00D2
:1006F000A84277D12068810717D5410705D5D8F8DA
:10070000001041F4E051C8F80010010705D5D8F8F1
:10071000001041F46041C8F80010D8F80010A26839
:1007200021F0F0011143C8F80010C00740D1D8F8FB
:10073000F80300F00F00A84207D988F8F853D8F85A
:10074000F80300F00F00A8424CD12068410707D5FC
:10075000D8F80010E26821F4E0511143C8F8001005
:10076000000708D5D8F80000216920F4604040EA6D
:10077000C100C8F8000000F055F8D8F8001041F6A4
:10078000A822C1F30311C0F60002515C40F2080236
:1007900020FA01F140F20400C2F200000068C2F247
:1007A00000021160FFF7C0FE0020BDE8F08100BF2D
:1007B0006068811E022907D258F8081C89015CBFB5
:1007C0000120BDE8F08111E0012807D158F8081C8C
:1007D00089035CBF0120BDE8F08107E058F8081CE0
:1007E000890703D40120BDE8F08100BFD8F80010CC
:1007F00021F003010843C8F80000FFF765FE064634
:1008000041F28837D8F80000616800F00C00B0EBC6
:10081000810F8CD0FFF758FE801BB842F2D903201D
:10082000BDE8F08110B543F60404C4F20204606828
:1008300000F00C0008280BD0042819BF42F2004039
:10084000C0F2F40041F60030C0F2B70010BD00BFA6
:10085000206821682368490241F60031C0F2B701DF
:1008600000F03F02C3F388105CBF42F20041C0F2C7
:10087000F401A1FB00010023FFF7B4FC2168022270
:10088000C1F3014102EB4101B0FBF1F010BD0000EA
:10089000002804BF012070472DE9F04182B00446D2
:1008A000007843F60006C007C4F202060CD0B06818
:1008B00000F00C00042840F081803068800303D5EC
:1008C0006068002800F06A81207880071BD5B06836
:1008D00010F00C0F09D0B06800F00C00082840F0B0
:1008E00087807068400200F183803068800703D5FC
:1008F000E068012840F052813068216920F0F8005A
:1009000040EAC10030602078000713D42078400707
:100910002AD4A569002D00F03C81B06800F00C00DD
:10092000082840F0A180012D40F01081012002B084
:10093000BDE8F0816069002840F20000C4F2472061
:1009400000F07E800121C0F8801EFFF7BDFD054646
:10095000706F8007DAD4FFF7B7FD401B0228F7D984
:10096000032002B0BDE8F081306C5FEAC0080AD411
:1009700000200190306C40F080503064306C00F00A
:1009800080500190019847F20007C4F200073868D0
:10099000C00547D4386840F480703860FFF794FD94
:1009A000054600BF3868C0053CD4FFF78DFD401BED
:1009B0000228F7D9032002B0BDE8F081B06800F04A
:1009C0000C00082803D1706840023FF576AF6068DC
:1009D000B0F5803F07D0B0F5A02F40F09B80306885
:1009E00040F480203060306840F4803030609BE01C
:1009F000E06800285CD00020C4F24720012101609B
:100A0000FFF762FD054600BF306880073FF574AF11
:100A1000FFF75AFD401B0228F6D9032002B0BDE8BB
:100A2000F08100BFA068012805D0052854D1306F9F
:100A300040F004003067306F40F00100306755E04F
:100A40000021C0F8801EFFF73FFD0546706F80074C
:100A50007FF55CAFFFF738FD401B0228F6D9032075
:100A600002B0BDE8F08100BF0027C4F24727002094
:100A70003866FFF729FD022D05460DD1306880014B
:100A800040F19080FFF720FD401B02284FF003004B
:100A9000F4D902B0BDE8F0813068800179D5FFF764
:100AA00013FD401B02284FF00300F5D9F1E700BF0A
:100AB0000020C4F2472000210160FFF705FD054634
:100AC000306880077FF51FAFFFF7FEFC401B022850
:100AD0004FF00300F4D9DCE7316F002821F0010169
:100AE0003167316F21F0040131677DD0FFF7ECFCF5
:100AF000054641F2883700BF306F800700F18680DD
:100B0000FFF7E2FC401BB842F6D9032002B0BDE873
:100B1000F08100BF3168002821F4803131603168F4
:100B200021F4802131607BD0FFF7CEFC054600BF69
:100B3000306880033FF5C8AEFFF7C6FC401B642851
:100B4000F6D9032002B0BDE8F08100BF7068E1690A
:100B500000F480028A4221D1216A00F03F028A42D9
:100B60001CD147F6C071626A0140B1EB821F15D1FA
:100B7000A16A4FF6FF73C903994300F44032A1F50F
:100B800080318A420AD1E16A00F07060B0EB016FF7
:100B900004D1002002B0BDE8F08100BF012002B006
:100BA000BDE8F08104F11C052FCD084340EA821016
:100BB000D9034FF6FF729143A1F5803140EA0560F9
:100BC0000843706001203866FFF77EFC044600BFD2
:100BD00030688001DDD4FFF777FC001B02284FF05E
:100BE0000300F5D955E700BFFFF76EFC054641F25B
:100BF000883700BF306F800708D5FFF765FC401BC2
:100C0000B8424FF00300F5D943E700BFB8F1000F39
:100C10003FF57FAE306C20F08050306479E600BF45
:100C2000FFF752FC054600BF306880037FF54CAEED
:100C3000FFF74AFC401B64284FF00300F4D928E773
:100C4000411E0020B0EB116F1CBF012070474EF217
:100C50001002CEF2000251604EF62351CEF2000196
:100C6000F0230B70072190601160704770470000FF
:100C70007047000090F83C20012A04BF0220704712
:100C8000B0B501F108053CCDD1E900CE23F47C5389
:100C900022F470521A432EF4F0431A432CF4E0432A
:100CA0001A4324F4C0431A432A43C96922F48042F8
:100CB000036811435964002180F83C10BDE8B0403E
:100CC0000846704790F83C20012A4FF0020254D0A9
:100CD00010B580F83D200268D2F804E0D2F808C0D0
:100CE0000C682EF07003234341F2FF74C4F2000439
:100CF000A24253600EDC40F2FF73C4F200039A423A
:100D000016DCB2F1804F2BD040F20043C4F2000356
:100D100024E000BF40F2FF33C4F201039A4213DC27
:100D200041F60003C4F200039A4219D0002313E0F5
:100D300040F60003C4F200039A4211D040F600438B
:100D4000C4F200030AE000BF44F20003C4F201034E
:100D50009A4205D040F20043C4F201039A4204D102
:100D600049682CF08003194391600121002280F82A
:100D70003D1080F83C20BDE8104010467047000050
:100D8000002804BF0120704710B5044690F83D00CC
:100D900028B9002084F83C00204600F01FF802200B
:100DA00084F83D002068211D00F05CFD012084F8DE
:100DB000460084F83E0084F83F0084F8400084F840
:100DC000410084F8420084F8430084F8440084F829
:100DD000450084F83D00002010BD0000006800219F
:100DE000C4F20101884218BF704780B582B000206C
:100DF000019043F64400C4F202000168002241F071
:100E0000010101600068002100F0010001900198DB
:100E10001920FFF7DBFB192002B0BDE88040FFF787
:100E2000C3BB000090F83D1001291CBF0120704792
:100E3000022180F83D10006841F2FF72C168C4F2DF
:100E40000002904241F00101C1600DDC40F2FF71EF
:100E5000C4F20001884215DCB0F1804F2AD040F284
:100E60000041C4F2000123E040F2FF31C4F201016D
:100E7000884213DC41F60001C4F20001884219D017
:100E8000002113E040F60001C4F20001884211D0B5
:100E900040F60041C4F200010AE000BF44F2000144
:100EA000C4F20101884205D040F20041C4F20101C0
:100EB000884206D1816801F00701062904BF00209D
:100EC0007047016841F00101016000207047000097
:100ED00090F83C20012A4FF0020200F0C58080B556
:100EE00080F83D20D0F800C04FF67772DCF808306B
:100EF00023EA0202CCF808200B684F2B28DC1F2BBA
:100F000044DD202B45D0302B43D0402B40F0AE8029
:100F1000D1F804E0C968DCF82030DCF8202022F0A9
:100F20000102CCF82020DCF8182022F0F00242EA7E
:100F3000011123F00A0242EA0E02CCF81810CCF894
:100F40002020DCF8081041F0470121F0300180E05A
:100F50006F2B27DDB3F5005F48D0B3F5805F7AD003
:100F6000702B40F08380D1E901E3C968DCF80820E8
:100F700043EA0E0322F47F4243EA01211143CCF8F5
:100F80000810DCF8081041F0770162E00BB1102B7B
:100F90006CD1DCF8081021F07001194341F0070111
:100FA00057E000BF502B35D0602B5FD1D1F804E063
:100FB000C968DCF82030DCF8202022F01002CCF8E0
:100FC0002020DCF8182022F4704242EA013123F09C
:100FD000A00242EA0E12CCF81810CCF82020DCF85F
:100FE000081041F0670121F0100132E0D1E901E37E
:100FF000C968DCF8082043EA0E0322F47F4243EA82
:1010000001211143CCF80810DCF8081041F48041AC
:101010001FE000BFD1F804E0C968DCF82030DCF83C
:10102000202022F00102CCF82020DCF8182022F049
:10103000F00242EA011123F00A0242EA0E02CCF861
:101040001810CCF82020DCF8081041F0570121F0EE
:101050002001CCF808100022012180F83D10002169
:1010600080F83C10BDE88040104670470122F3E74D
:101070007047000070B504460068C5680669B1078E
:1010800016D515F0020113D06FF0020101610121A4
:1010900021778069800703D02046FFF7E9FF05E04C
:1010A000204600F08FF8204600F0D0F9002020778D
:1010B000700719D515F0040016D020686FF00401F0
:1010C000016102212177806910F4407F04D020461D
:1010D000FFF7CEFF06E000BF204600F073F8204681
:1010E00000F0B4F900202077300717D515F008007C
:1010F00014D020686FF00801016104212177C069D4
:10110000800703D02046FFF7B3FF05E0204600F03C
:1011100059F8204600F09AF900202077F00619D5FA
:1011200015F0100016D020686FF010010161082141
:101130002177C06910F4407F04D02046FFF798FF64
:1011400006E000BF204600F03DF8204600F07EF9A2
:1011500000202077F00718BF15F0010002D13006FB
:1011600009D412E020686FF001010161204600F00F
:10117000FFF9300609D515F0800006D020686FF021
:10118000800101612046FFF771FD700609D515F059
:10119000400006D020686FF040010161204600F059
:1011A000E9F9B00658BF70BD15F0200008D02168DD
:1011B0006FF0200220460A61BDE87040FFF758BD7D
:1011C00070BD00007047000090F83C30012B04BF58
:1011D000022070474FEAB202032A00F201812DE992
:1011E000F043DFE802F0033F7FBF00BF036840F237
:1011F00000461C6A1A6A24F0020422F001021A62F4
:101200001A46D3F804C052F818EF8F6843F480658B
:10121000C4F20106B54244EA070405D1CF6824F0C0
:101220000C0427F004073C430F68B54206D1D1E90E
:1012300005582CF440762E4346EA080C2EF073062F
:101240003743C3F804C09F614F6809695F631C623C
:101250009F6947F008079F619F6927F004079F6116
:10126000B2E000BF036840F200481C6A1A6A24F02A
:10127000200422F010021A621A46D3F804C052F871
:1012800018EF8F6843F48065C4F20108454544EACD
:10129000071407D1CF686FF0400624F0C00406EAB7
:1012A00007163443D1F80090454506D1D1E90556DB
:1012B0002CF440672E4347EA860C2EF4E64747EAB3
:1012C0000927C3F804C09F614F6809699F631C62C6
:1012D0009F6947F400679F619F6927F480679F615A
:1012E00071E000BF036840F200481C6A1A6A24F4E7
:1012F000007422F480721A621A46D3F804C052F8BD
:101300001CEF8F6843F48065C4F20108454544EA48
:10131000072408D1CF6840F2FF463F0224F440641E
:1013200027EA06063443D1F80090454506D1D1E9B5
:1013300005562CF440572E4347EA061C2EF073073F
:1013400047EA0907C3F804C0DF614F680969DF6332
:101350001C62DF6947F00807DF61DF6927F00407D7
:10136000DF6131E0036840F20045D3F820C01A6A1B
:1013700043F4806722F480521A621A465C6852F87D
:101380001CEFD1F800808E68C4F20105AF4204D191
:101390004D6924F4804444EA85142CF4005747EA4C
:1013A00006372EF4E64646EA08265C60DE614E68A3
:1013B00009691E641F62DF6947F40067DF61DF6946
:1013C00027F48067DF610902136819431160002167
:1013D000BDE8F043002280F83C200846704700BF7B
:1013E0000121002280F83C2008467047002804BFF5
:1013F0000120704710B5044690F83D0028B9002040
:1014000084F83C00204600F01FF8022084F83D00DC
:101410002068211D00F026FA012084F8460084F897
:101420003E0084F83F0084F8400084F8410084F8CE
:10143000420084F8430084F8440084F8450084F8AE
:101440003D00002010BD0000704700007047000004
:1014500041B1082910D0042914BF00F1410200F164
:101460003F020BE090F83E20012A1CBF012070478C
:10147000022280F83E2013E000F140021278012A97
:101480001CBF012070470222082907D0042914BF7D
:1014900080F8412080F83F2002E000BF80F8402023
:1014A000006801F01F010122036A02FA01F123EA38
:1014B00001020262026A114341F2FF72C4F20002A9
:1014C0009042016210DC40F2FF71C4F200018842D8
:1014D0001CDCB0F1804F3FD040F20041C4F200016B
:1014E000884239D03DE000BF40F2FF31C4F2010133
:1014F000884219DC41F60001C4F2000188422BD079
:101500000021C4F2010188421AD02AE040F600010D
:10151000C4F2000188421FD040F60041C4F200012D
:10152000884219D01DE000BF44F20001C4F201015D
:10153000884211D040F20041C4F20101884210D12A
:10154000416C40F2004340F48062C4F2010341F474
:1015500000419A42416404D1816801F007010629E3
:1015600003D0016841F001010160002070470000D4
:101570007047000070470000FEE70000F0B587B03C
:10158000002643F63000CDE905660196C4F202005C
:10159000016840F2004441F0010101600168C4F2B9
:1015A000020401F00101019101990196016802AD67
:1015B00041F0800101600168022701F08001019182
:1015C00001990196016841F002010160016801F092
:1015D0000201019101990196016841F01001016039
:1015E0000068294600F01000019001980420029044
:1015F0004FF48810039020460497FEF795FE402094
:10160000CDE902070920069004F5C0502946CDE92E
:101610000466FEF789FE082000210022FEF7D6FFAF
:101620000820FEF7C1FF07B0F0BD0000B0B59CB0C8
:10163000002540F22000C4F201050021C2F20000A2
:10164000B32240F2E7331691CDE914111191CDE99F
:101650000F11CDE90D11CDE90B11CDE90911CDE93E
:101660000711CDE90511CDE90311CDE90111C0E95B
:101670000052C0E90213C0E904118161FFF780FB49
:10168000002818BFFEF71EFE4FF48050139040F262
:101690002000C2F2000013A9FFF71AFC002818BFAF
:1016A000FEF710FE40F22000C2F20000FFF79EFE9F
:1016B000002818BFFEF706FE40F220000024C2F208
:1016C000000010A9CDE91044FFF7FCFA002818BF6C
:1016D000FEF7F8FD702009904FF4FA70CDE90A0486
:1016E00040F22000C2F2000009A90422CDE90C4416
:1016F000CDE90E44FFF768FD002818BFFEF7E2FDB4
:1017000040F2200400204FF40051C2F20004059082
:10171000CDE90300CDE901000691089001A920461A
:10172000FFF7A8FA002818BFFEF7CCFD2068A842F2
:1017300002D01CB0B0BD00BF002043F630011790AE
:10174000C4F202010A6842F010020A60096801F05E
:101750001001179117994FF4006117910221CDE9FB
:1017600018101A9001201B9005F5883017A9FEF774
:10177000DBFD1CB0B0BD0000FEE70000FEE700008E
:101780007047000070470000FEF7A4BE80B592B01D
:10179000002043F64001CDE90A00CDE9080005909C
:1017A000CDE90300CDE901000090C4F202010A680E
:1017B00042F080520A60096801F08051009100995E
:1017C000009047F20000C4F20000016841F440417B
:1017D000016000684FF4800100F4404000900098E0
:1017E000012006904FF480300D91062107900220D1
:1017F0000E91B4210C90CDE90F100420119006A891
:10180000FFF746F810B172B6FEE700BFFEF71AFF09
:1018100010B172B6FEE700BF0F20019002200290C7
:10182000002003904FF4A05004904FF48050059096
:1018300001A80521FEF744FF10B172B6FEE700BF14
:1018400012B080BD4EF68850CEF20000016841F41F
:10185000700101607047000040F22000C2F20000F9
:10186000FFF708BCB0B540F6FF3E0568C4F2000EB5
:1018700040F2004C7045C4F2010C27DCB0F1804FFF
:1018800031D040F20043C4F2000398422BD040F61E
:101890000003C4F20003984225D041F6FF73C4F25E
:1018A000000398422ADC70453CDCB0F1804F5FD0E9
:1018B00040F20043C4F20003984259D040F60003BE
:1018C000C4F20003984253D057E000BF40F60043F3
:1018D000C4F20003984206D0604504D00023C4F24D
:1018E00001039842D9D14B6825F0700243EA020502
:1018F00041F6FF73C4F200039842D4DD43F6FF7350
:10190000C4F20103984221DC42F20003C4F2000356
:1019100098422DD00023C4F20103984228D060459C
:1019200026D02AE040F60043C4F2000398421FD0BC
:1019300041F60003C4F20003984219D041F6004377
:10194000C4F20003984213D017E000BF44F2000332
:10195000C4F2010398420BD044F60003C4F2010321
:10196000984205D044F20043C4F20103984204D1E6
:10197000CB6825F4407243EA02050A688C684B691B
:10198000C46240F480648262644504BF09690163F3
:10199000026825F0800142F004021943026001222E
:1019A00042610160B0BD0000FEE70000FEF7A0FD4F
:1019B000FFF7ECFEFFF7E2FDFFF738FE40F22004F0
:1019C000C2F2000420680025856320460421FFF749
:1019D0003FFD2046FFF726FA40F21006C2F200064D
:1019E00040F2E6380A2702E0002908BFB560FEF79A
:1019F0006BFD31787278914215D0317870607170DA
:101A000031B1012908D002290AD14FF4FA7200E05D
:101A10000022B26005E000BF0022B260B77000E0B3
:101A2000B26823689A63022912D00129DCD1716857
:101A3000411A0A29DBD396F90210B2687060501877
:101A40004045B06012DDF62140F2E73012E000BF01
:101A50007168411AB1F5FA7FC9D3B1687060B1F508
:101A6000FA7F0DD071B94FF4FA710AE0002803DC57
:101A70000A210020B060B17021688863B7E700BF19
:101A80000021B16020688163B1E702E008C8121F3D
:101A900008C1002AFAD170477047002001E001C157
:101AA000121F002AFBD17047000000000000000058
:101AB0000102030406070809D81A000800000020E4
:101AC000100000008A1A0008E81A00081000002020
:101AD000600400009A1A00080100000010000000D5
:081AE0000024F40000000000E6
:04000005080001AD41
:00000001FF
